{
  "transactions": [
    {
      "hash": "0xa07e6d4d87923c245c75cf92ae7648f3ac6f7af268ba276a8c6a00ffdd62049a",
      "transactionType": "CALL",
      "contractName": "SimpleStaking",
      "contractAddress": "0x9a98e6b60784634ae273f2fb84519c7f1885aed2",
      "function": "transferOwnership(address)",
      "arguments": [
        "0xed699aB8547440729de9b8D104e93d5b013D7973"
      ],
      "transaction": {
        "from": "0x84db3d1de9a43aa144c21b248ad31a1c83d8334d",
        "to": "0x9a98e6b60784634ae273f2fb84519c7f1885aed2",
        "gas": "0xa5f2",
        "value": "0x0",
        "input": "0xf2fde38b000000000000000000000000ed699ab8547440729de9b8d104e93d5b013d7973",
        "nonce": "0x8",
        "chainId": "0x1"
      },
      "additionalContracts": [],
      "isFixedGasLimit": false
    }
  ],
  "receipts": [
    {
      "status": "0x1",
      "cumulativeGasUsed": "0xf13b04",
      "logs": [
        {
          "address": "0x9a98e6b60784634ae273f2fb84519c7f1885aed2",
          "topics": [
            "0x38d16b8cac22d99fc7c124b9cd0de2d3fa1faef420bfe791d8c362d765e22700",
            "0x00000000000000000000000084db3d1de9a43aa144c21b248ad31a1c83d8334d",
            "0x000000000000000000000000ed699ab8547440729de9b8d104e93d5b013d7973"
          ],
          "data": "0x",
          "blockHash": "0xc9c3ebb9a0770382d09123267c61fffa53f07c2eaf5a79508b7777a9c8fb0895",
          "blockNumber": "0x135e364",
          "transactionHash": "0xa07e6d4d87923c245c75cf92ae7648f3ac6f7af268ba276a8c6a00ffdd62049a",
          "transactionIndex": "0xa0",
          "logIndex": "0x12f",
          "removed": false
        }
      ],
      "logsBloom": "0x60000000000000000000000000000001000000000000000000000000000000000000000010000000000000040000000000000000000000000000000000800000000000000000000000000000000000000000000000000000000000000000000000000000000000000000000000000000000800000000000000000000000000000000000000000000000000000000000000000000000000000000000000000000000000000200020000000000000000000000000000000000000000000000000000002000000000000000000000000000000000000000000000000000000000000000000000000000000000020000000000000000000000000000000800000000",
      "type": "0x0",
      "transactionHash": "0xa07e6d4d87923c245c75cf92ae7648f3ac6f7af268ba276a8c6a00ffdd62049a",
      "transactionIndex": "0xa0",
      "blockHash": "0xc9c3ebb9a0770382d09123267c61fffa53f07c2eaf5a79508b7777a9c8fb0895",
      "blockNumber": "0x135e364",
      "gasUsed": "0x7825",
      "effectiveGasPrice": "0xb662c742",
      "from": "0x84db3d1de9a43aa144c21b248ad31a1c83d8334d",
      "to": "0x9a98e6b60784634ae273f2fb84519c7f1885aed2",
      "contractAddress": null
    }
  ],
  "libraries": [],
  "pending": [],
  "returns": {},
  "timestamp": 1721009440,
  "chain": 1,
  "commit": "a480a80"
}