{
  "transactions": [
    {
      "hash": "0x33a67c6213787896bff3bc35428d3b970544c393f3ae909c831c9a9735267df2",
      "transactionType": "CALL",
      "contractName": null,
      "contractAddress": "0x55105f426126952ac6d9c2e7e72c7451318617d3",
      "function": "stakeBehalf(address[],uint256[])",
      "arguments": [
        "[0xdE05a1Abb121113a33eeD248BD91ddC254d5E9Db]",
        "[5000000000000000000]"
      ],
      "transaction": {
        "from": "0xde05a1abb121113a33eed248bd91ddc254d5e9db",
        "to": "0x55105f426126952ac6d9c2e7e72c7451318617d3",
        "gas": "0x1c990",
        "value": "0x0",
        "input": "0x469ae374000000000000000000000000000000000000000000000000000000000000004000000000000000000000000000000000000000000000000000000000000000800000000000000000000000000000000000000000000000000000000000000001000000000000000000000000de05a1abb121113a33eed248bd91ddc254d5e9db00000000000000000000000000000000000000000000000000000000000000010000000000000000000000000000000000000000000000004563918244f40000",
        "nonce": "0x1b7",
        "chainId": "0xaa36a7"
      },
      "additionalContracts": [],
      "isFixedGasLimit": false
    }
  ],
  "receipts": [
    {
      "status": "0x1",
      "cumulativeGasUsed": "0xdf6ca7",
      "logs": [
        {
          "address": "0x55105f426126952ac6d9c2e7e72c7451318617d3",
          "topics": [
            "0xf8a1448a8741accb69ef058349d251e0830b63a2fabfbada1059c05a286f6195",
            "0xe3c51446af34b04da516c1035c177b1af837ec078d28fb82245bfaefce44055e",
            "0x2e10ea65e8842925cf2e61b19c59a6ae6a6e5674f868567d525f06e32af93215"
          ],
          "data": "0x",
          "blockHash": "0x4d9398284880f67da6543479769aaebd92d2d90d1d7de4b938dbde1513151809",
          "blockNumber": "0x5d8baf",
          "transactionHash": "0x33a67c6213787896bff3bc35428d3b970544c393f3ae909c831c9a9735267df2",
          "transactionIndex": "0x5e",
          "logIndex": "0x63",
          "removed": false
        },
        {
          "address": "0x5667424802ef74c314e7adbba6fa669999d8137d",
          "topics": [
            "0xddf252ad1be2c89b69c2b068fc378daa952ba7f163c4a11628f55a4df523b3ef",
            "0x000000000000000000000000de05a1abb121113a33eed248bd91ddc254d5e9db",
            "0x00000000000000000000000055105f426126952ac6d9c2e7e72c7451318617d3"
          ],
          "data": "0x0000000000000000000000000000000000000000000000004563918244f40000",
          "blockHash": "0x4d9398284880f67da6543479769aaebd92d2d90d1d7de4b938dbde1513151809",
          "blockNumber": "0x5d8baf",
          "transactionHash": "0x33a67c6213787896bff3bc35428d3b970544c393f3ae909c831c9a9735267df2",
          "transactionIndex": "0x5e",
          "logIndex": "0x64",
          "removed": false
        }
      ],
      "logsBloom": "0x00000000004000000000000000000000001000000000000002100000000000000000000000000010800000000008000000000000000000000000000000000000000000000000000000000008000100800000000042000000000000000000000000000000000000000000000008000000000000000000004000000010000000000000000000000020000000000000000000000000000200000000000000000000000001000000000000000001000000000000000000000000000000000000000000000002000000000000000000000000000000100020000000008000100000000000000000000000000000000000000000000000000000000000000000000000",
      "type": "0x2",
      "transactionHash": "0x33a67c6213787896bff3bc35428d3b970544c393f3ae909c831c9a9735267df2",
      "transactionIndex": "0x5e",
      "blockHash": "0x4d9398284880f67da6543479769aaebd92d2d90d1d7de4b938dbde1513151809",
      "blockNumber": "0x5d8baf",
      "gasUsed": "0x14b45",
      "effectiveGasPrice": "0xb19570",
      "from": "0xde05a1abb121113a33eed248bd91ddc254d5e9db",
      "to": "0x55105f426126952ac6d9c2e7e72c7451318617d3",
      "contractAddress": null
    }
  ],
  "libraries": [],
  "pending": [],
  "returns": {},
  "timestamp": 1718675860,
  "chain": 11155111,
  "commit": "0c00c1f"
}