{
  "transactions": [
    {
      "hash": "0xfacb231542e519da2f0694e4316a8cf7e6b05831e9709f2fc598aadf832d3d24",
      "transactionType": "CALL",
      "contractName": null,
      "contractAddress": "0x5667424802ef74c314e7adbba6fa669999d8137d",
      "function": "mint(uint256)",
      "arguments": [
        "10000000000000000000"
      ],
      "transaction": {
        "from": "0xde05a1abb121113a33eed248bd91ddc254d5e9db",
        "to": "0x5667424802ef74c314e7adbba6fa669999d8137d",
        "gas": "0xb672",
        "value": "0x0",
        "input": "0xa0712d680000000000000000000000000000000000000000000000008ac7230489e80000",
        "nonce": "0x198",
        "chainId": "0xaa36a7"
      },
      "additionalContracts": [],
      "isFixedGasLimit": false
    },
    {
      "hash": "0x258becd6a85210a025c089a29e5297b6cc8152b598cc17debf52302608481fac",
      "transactionType": "CALL",
      "contractName": null,
      "contractAddress": "0x5667424802ef74c314e7adbba6fa669999d8137d",
      "function": "approve(address,uint256)",
      "arguments": [
        "0x2EF1b6BcFf31b64ee4Fd5A3CF9e7b58a2eaea8D5",
        "10000000000000000000"
      ],
      "transaction": {
        "from": "0xde05a1abb121113a33eed248bd91ddc254d5e9db",
        "to": "0x5667424802ef74c314e7adbba6fa669999d8137d",
        "gas": "0x1090a",
        "value": "0x0",
        "input": "0x095ea7b30000000000000000000000002ef1b6bcff31b64ee4fd5a3cf9e7b58a2eaea8d50000000000000000000000000000000000000000000000008ac7230489e80000",
        "nonce": "0x199",
        "chainId": "0xaa36a7"
      },
      "additionalContracts": [],
      "isFixedGasLimit": false
    },
    {
      "hash": "0x5b1e473a003362ba2338c2f0c86b61df2280a59864a57b73b8fd835c40b339e0",
      "transactionType": "CALL",
      "contractName": "SimpleStaking",
      "contractAddress": "0xa970b29c8634a4d50f0ae1c29724a09399cef2d9",
      "function": "stakeBehalf(address[],uint256[])",
      "arguments": [
        "[0xdE05a1Abb121113a33eeD248BD91ddC254d5E9Db, 0xdE05a1Abb121113a33eeD248BD91ddC254d5E9Db, 0xdE05a1Abb121113a33eeD248BD91ddC254d5E9Db, 0xdE05a1Abb121113a33eeD248BD91ddC254d5E9Db, 0xdE05a1Abb121113a33eeD248BD91ddC254d5E9Db]",
        "[5000000000000000000, 5000000000000000000, 5000000000000000000, 5000000000000000000, 5000000000000000000]"
      ],
      "transaction": {
        "from": "0xde05a1abb121113a33eed248bd91ddc254d5e9db",
        "to": "0xa970b29c8634a4d50f0ae1c29724a09399cef2d9",
        "gas": "0x3506a",
        "value": "0x0",
        "input": "0x469ae374000000000000000000000000000000000000000000000000000000000000004000000000000000000000000000000000000000000000000000000000000001000000000000000000000000000000000000000000000000000000000000000005000000000000000000000000de05a1abb121113a33eed248bd91ddc254d5e9db000000000000000000000000de05a1abb121113a33eed248bd91ddc254d5e9db000000000000000000000000de05a1abb121113a33eed248bd91ddc254d5e9db000000000000000000000000de05a1abb121113a33eed248bd91ddc254d5e9db000000000000000000000000de05a1abb121113a33eed248bd91ddc254d5e9db00000000000000000000000000000000000000000000000000000000000000050000000000000000000000000000000000000000000000004563918244f400000000000000000000000000000000000000000000000000004563918244f400000000000000000000000000000000000000000000000000004563918244f400000000000000000000000000000000000000000000000000004563918244f400000000000000000000000000000000000000000000000000004563918244f40000",
        "nonce": "0x19a",
        "chainId": "0xaa36a7"
      },
      "additionalContracts": [],
      "isFixedGasLimit": false
    }
  ],
  "receipts": [
    {
      "status": "0x1",
      "cumulativeGasUsed": "0xa848d2",
      "logs": [
        {
          "address": "0x5667424802ef74c314e7adbba6fa669999d8137d",
          "topics": [
            "0xddf252ad1be2c89b69c2b068fc378daa952ba7f163c4a11628f55a4df523b3ef",
            "0x0000000000000000000000000000000000000000000000000000000000000000",
            "0x000000000000000000000000de05a1abb121113a33eed248bd91ddc254d5e9db"
          ],
          "data": "0x0000000000000000000000000000000000000000000000008ac7230489e80000",
          "blockHash": "0x9fc1ef900deb41180e603cc27733767b1e1d60747a1f2e8d84933b960dd1ff69",
          "blockNumber": "0x5bfed3",
          "transactionHash": "0xfacb231542e519da2f0694e4316a8cf7e6b05831e9709f2fc598aadf832d3d24",
          "transactionIndex": "0x52",
          "logIndex": "0x8e",
          "removed": false
        }
      ],
      "logsBloom": "0x00000000000000000000000000000000000000000000000002100000000000000000000000000000000000000000000000000000000000000000000000000000000000000000000000000008000000000000000000000000000000000000000000000000020000000000000000000800000000000000004000000010000000000000000000000020000000000000000000000000000000000000000000000000000001000000000000000000000000000000000000000000000000000000000000000002000000000000000000000000000000000000000000000000100020000000000000000000000000000000000000000000000000000000000000000000",
      "type": "0x2",
      "transactionHash": "0xfacb231542e519da2f0694e4316a8cf7e6b05831e9709f2fc598aadf832d3d24",
      "transactionIndex": "0x52",
      "blockHash": "0x9fc1ef900deb41180e603cc27733767b1e1d60747a1f2e8d84933b960dd1ff69",
      "blockNumber": "0x5bfed3",
      "gasUsed": "0x8417",
      "effectiveGasPrice": "0x188f62443",
      "from": "0xde05a1abb121113a33eed248bd91ddc254d5e9db",
      "to": "0x5667424802ef74c314e7adbba6fa669999d8137d",
      "contractAddress": null
    },
    {
      "status": "0x1",
      "cumulativeGasUsed": "0xa8fe0c",
      "logs": [
        {
          "address": "0x5667424802ef74c314e7adbba6fa669999d8137d",
          "topics": [
            "0x8c5be1e5ebec7d5bd14f71427d1e84f3dd0314c0f7b2291e5b200ac8c7c3b925",
            "0x000000000000000000000000de05a1abb121113a33eed248bd91ddc254d5e9db",
            "0x0000000000000000000000002ef1b6bcff31b64ee4fd5a3cf9e7b58a2eaea8d5"
          ],
          "data": "0x0000000000000000000000000000000000000000000000008ac7230489e80000",
          "blockHash": "0x9fc1ef900deb41180e603cc27733767b1e1d60747a1f2e8d84933b960dd1ff69",
          "blockNumber": "0x5bfed3",
          "transactionHash": "0x258becd6a85210a025c089a29e5297b6cc8152b598cc17debf52302608481fac",
          "transactionIndex": "0x53",
          "logIndex": "0x8f",
          "removed": false
        }
      ],
      "logsBloom": "0x00000000000000000000000000000000000000000000000002100000000000000010000000000000000040000000000000000000000000000000000000200000000000000000000000000000000000008000000000000000000000000000000000000000000000000000000000000000000000000000004000000000000000000000000000000020000000000000000000000000000000000000000000000000020001000000000000000000000000000000000000000000000000000000000000000000000000000000000000000000000000000000000000000000100000000010000000000000000000000000000000000000000000000000000000000000",
      "type": "0x2",
      "transactionHash": "0x258becd6a85210a025c089a29e5297b6cc8152b598cc17debf52302608481fac",
      "transactionIndex": "0x53",
      "blockHash": "0x9fc1ef900deb41180e603cc27733767b1e1d60747a1f2e8d84933b960dd1ff69",
      "blockNumber": "0x5bfed3",
      "gasUsed": "0xb53a",
      "effectiveGasPrice": "0x188f62443",
      "from": "0xde05a1abb121113a33eed248bd91ddc254d5e9db",
      "to": "0x5667424802ef74c314e7adbba6fa669999d8137d",
      "contractAddress": null
    },
    {
      "status": "0x1",
      "cumulativeGasUsed": "0xab644a",
      "logs": [
        {
          "address": "0xa970b29c8634a4d50f0ae1c29724a09399cef2d9",
          "topics": [
            "0x5dac0c1b1112564a045ba943c9d50270893e8e826c49be8e7073adc713ab7bd7",
            "0x000000000000000000000000de05a1abb121113a33eed248bd91ddc254d5e9db",
            "0x000000000000000000000000de05a1abb121113a33eed248bd91ddc254d5e9db"
          ],
          "data": "0x0000000000000000000000000000000000000000000000004563918244f40000",
          "blockHash": "0x9fc1ef900deb41180e603cc27733767b1e1d60747a1f2e8d84933b960dd1ff69",
          "blockNumber": "0x5bfed3",
          "transactionHash": "0x5b1e473a003362ba2338c2f0c86b61df2280a59864a57b73b8fd835c40b339e0",
          "transactionIndex": "0x54",
          "logIndex": "0x90",
          "removed": false
        },
        {
          "address": "0xa970b29c8634a4d50f0ae1c29724a09399cef2d9",
          "topics": [
            "0x5dac0c1b1112564a045ba943c9d50270893e8e826c49be8e7073adc713ab7bd7",
            "0x000000000000000000000000de05a1abb121113a33eed248bd91ddc254d5e9db",
            "0x000000000000000000000000de05a1abb121113a33eed248bd91ddc254d5e9db"
          ],
          "data": "0x0000000000000000000000000000000000000000000000004563918244f40000",
          "blockHash": "0x9fc1ef900deb41180e603cc27733767b1e1d60747a1f2e8d84933b960dd1ff69",
          "blockNumber": "0x5bfed3",
          "transactionHash": "0x5b1e473a003362ba2338c2f0c86b61df2280a59864a57b73b8fd835c40b339e0",
          "transactionIndex": "0x54",
          "logIndex": "0x91",
          "removed": false
        },
        {
          "address": "0xa970b29c8634a4d50f0ae1c29724a09399cef2d9",
          "topics": [
            "0x5dac0c1b1112564a045ba943c9d50270893e8e826c49be8e7073adc713ab7bd7",
            "0x000000000000000000000000de05a1abb121113a33eed248bd91ddc254d5e9db",
            "0x000000000000000000000000de05a1abb121113a33eed248bd91ddc254d5e9db"
          ],
          "data": "0x0000000000000000000000000000000000000000000000004563918244f40000",
          "blockHash": "0x9fc1ef900deb41180e603cc27733767b1e1d60747a1f2e8d84933b960dd1ff69",
          "blockNumber": "0x5bfed3",
          "transactionHash": "0x5b1e473a003362ba2338c2f0c86b61df2280a59864a57b73b8fd835c40b339e0",
          "transactionIndex": "0x54",
          "logIndex": "0x92",
          "removed": false
        },
        {
          "address": "0xa970b29c8634a4d50f0ae1c29724a09399cef2d9",
          "topics": [
            "0x5dac0c1b1112564a045ba943c9d50270893e8e826c49be8e7073adc713ab7bd7",
            "0x000000000000000000000000de05a1abb121113a33eed248bd91ddc254d5e9db",
            "0x000000000000000000000000de05a1abb121113a33eed248bd91ddc254d5e9db"
          ],
          "data": "0x0000000000000000000000000000000000000000000000004563918244f40000",
          "blockHash": "0x9fc1ef900deb41180e603cc27733767b1e1d60747a1f2e8d84933b960dd1ff69",
          "blockNumber": "0x5bfed3",
          "transactionHash": "0x5b1e473a003362ba2338c2f0c86b61df2280a59864a57b73b8fd835c40b339e0",
          "transactionIndex": "0x54",
          "logIndex": "0x93",
          "removed": false
        },
        {
          "address": "0xa970b29c8634a4d50f0ae1c29724a09399cef2d9",
          "topics": [
            "0x5dac0c1b1112564a045ba943c9d50270893e8e826c49be8e7073adc713ab7bd7",
            "0x000000000000000000000000de05a1abb121113a33eed248bd91ddc254d5e9db",
            "0x000000000000000000000000de05a1abb121113a33eed248bd91ddc254d5e9db"
          ],
          "data": "0x0000000000000000000000000000000000000000000000004563918244f40000",
          "blockHash": "0x9fc1ef900deb41180e603cc27733767b1e1d60747a1f2e8d84933b960dd1ff69",
          "blockNumber": "0x5bfed3",
          "transactionHash": "0x5b1e473a003362ba2338c2f0c86b61df2280a59864a57b73b8fd835c40b339e0",
          "transactionIndex": "0x54",
          "logIndex": "0x94",
          "removed": false
        }
      ],
      "logsBloom": "0x00000000000000000000000000000000000000000000000000100000000000000000000000000000000000000000000000000000000000000000000000000000000000000000000000000000000000000000000000000000000000000000000000000000400000000000000000000000000000000000004000000000000000000000000000000020000000000000000000000000000000000000000000000000008000000000000000000000000000000000000000000000000000000000000100000000000000000000000000000000800000000000000000000000000000000000000000002000000020000000000000000000000000000000000000000000",
      "type": "0x2",
      "transactionHash": "0x5b1e473a003362ba2338c2f0c86b61df2280a59864a57b73b8fd835c40b339e0",
      "transactionIndex": "0x54",
      "blockHash": "0x9fc1ef900deb41180e603cc27733767b1e1d60747a1f2e8d84933b960dd1ff69",
      "blockNumber": "0x5bfed3",
      "gasUsed": "0x2663e",
      "effectiveGasPrice": "0x188f62443",
      "from": "0xde05a1abb121113a33eed248bd91ddc254d5e9db",
      "to": "0xa970b29c8634a4d50f0ae1c29724a09399cef2d9",
      "contractAddress": null
    }
  ],
  "libraries": [],
  "pending": [],
  "returns": {},
  "timestamp": 1717385539,
  "chain": 11155111,
  "commit": "1884120"
}