{
  "transactions": [
    {
      "hash": "0xe181692f01e7971e5ef8b794fe91bd6fbb93290e6fc15eb303ab572867db2198",
      "transactionType": "CALL",
      "contractName": null,
      "contractAddress": "0x5667424802ef74c314e7adbba6fa669999d8137d",
      "function": "mint(uint256)",
      "arguments": [
        "100000000000000000000"
      ],
      "transaction": {
        "from": "0xde05a1abb121113a33eed248bd91ddc254d5e9db",
        "to": "0x5667424802ef74c314e7adbba6fa669999d8137d",
        "gas": "0xc13f",
        "value": "0x0",
        "input": "0xa0712d680000000000000000000000000000000000000000000000056bc75e2d63100000",
        "nonce": "0x1b3",
        "chainId": "0xaa36a7"
      },
      "additionalContracts": [],
      "isFixedGasLimit": false
    },
    {
      "hash": "0xbc5ee9b447203d8cfd98579fcaa589c16eb9749036fb5f7915c1945827413d9d",
      "transactionType": "CALL",
      "contractName": null,
      "contractAddress": "0x5667424802ef74c314e7adbba6fa669999d8137d",
      "function": "approve(address,uint256)",
      "arguments": [
        "0x55105f426126952AC6d9C2E7e72C7451318617D3",
        "100000000000000000000"
      ],
      "transaction": {
        "from": "0xde05a1abb121113a33eed248bd91ddc254d5e9db",
        "to": "0x5667424802ef74c314e7adbba6fa669999d8137d",
        "gas": "0xa76b",
        "value": "0x0",
        "input": "0x095ea7b300000000000000000000000055105f426126952ac6d9c2e7e72c7451318617d30000000000000000000000000000000000000000000000056bc75e2d63100000",
        "nonce": "0x1b4",
        "chainId": "0xaa36a7"
      },
      "additionalContracts": [],
      "isFixedGasLimit": false
    },
    {
      "hash": "0x3ef423897de64205a2d2f81c2a458c3220620680801c8fa91f223206c3d84164",
      "transactionType": "CALL",
      "contractName": null,
      "contractAddress": "0x55105f426126952ac6d9c2e7e72c7451318617d3",
      "function": "stakeBehalf(address[],uint256[])",
      "arguments": [
        "[0xdE05a1Abb121113a33eeD248BD91ddC254d5E9Db, 0xdE05a1Abb121113a33eeD248BD91ddC254d5E9Db]",
        "[5000000000000000000, 5000000000000000000]"
      ],
      "transaction": {
        "from": "0xde05a1abb121113a33eed248bd91ddc254d5e9db",
        "to": "0x55105f426126952ac6d9c2e7e72c7451318617d3",
        "gas": "0x23369",
        "value": "0x0",
        "input": "0x469ae374000000000000000000000000000000000000000000000000000000000000004000000000000000000000000000000000000000000000000000000000000000a00000000000000000000000000000000000000000000000000000000000000002000000000000000000000000de05a1abb121113a33eed248bd91ddc254d5e9db000000000000000000000000de05a1abb121113a33eed248bd91ddc254d5e9db00000000000000000000000000000000000000000000000000000000000000020000000000000000000000000000000000000000000000004563918244f400000000000000000000000000000000000000000000000000004563918244f40000",
        "nonce": "0x1b5",
        "chainId": "0xaa36a7"
      },
      "additionalContracts": [],
      "isFixedGasLimit": false
    }
  ],
  "receipts": [
    {
      "status": "0x1",
      "cumulativeGasUsed": "0x1736319",
      "logs": [
        {
          "address": "0x5667424802ef74c314e7adbba6fa669999d8137d",
          "topics": [
            "0xddf252ad1be2c89b69c2b068fc378daa952ba7f163c4a11628f55a4df523b3ef",
            "0x0000000000000000000000000000000000000000000000000000000000000000",
            "0x000000000000000000000000de05a1abb121113a33eed248bd91ddc254d5e9db"
          ],
          "data": "0x0000000000000000000000000000000000000000000000056bc75e2d63100000",
          "blockHash": "0xe9059e14bb20bcc0728d12f21540130ecd8ec350a5f52761b1873cbb19ae9293",
          "blockNumber": "0x5d8b9f",
          "transactionHash": "0xe181692f01e7971e5ef8b794fe91bd6fbb93290e6fc15eb303ab572867db2198",
          "transactionIndex": "0x7f",
          "logIndex": "0xcb",
          "removed": false
        }
      ],
      "logsBloom": "0x00000000000000000000000000000000000000000000000002100000000000000000000000000000000000000000000000000000000000000000000000000000000000000000000000000008000000000000000000000000000000000000000000000000020000000000000000000800000000000000004000000010000000000000000000000020000000000000000000000000000000000000000000000000000001000000000000000000000000000000000000000000000000000000000000000002000000000000000000000000000000000000000000000000100020000000000000000000000000000000000000000000000000000000000000000000",
      "type": "0x2",
      "transactionHash": "0xe181692f01e7971e5ef8b794fe91bd6fbb93290e6fc15eb303ab572867db2198",
      "transactionIndex": "0x7f",
      "blockHash": "0xe9059e14bb20bcc0728d12f21540130ecd8ec350a5f52761b1873cbb19ae9293",
      "blockNumber": "0x5d8b9f",
      "gasUsed": "0x8423",
      "effectiveGasPrice": "0x8bb0a1",
      "from": "0xde05a1abb121113a33eed248bd91ddc254d5e9db",
      "to": "0x5667424802ef74c314e7adbba6fa669999d8137d",
      "contractAddress": null
    },
    {
      "status": "0x1",
      "cumulativeGasUsed": "0x173d593",
      "logs": [
        {
          "address": "0x5667424802ef74c314e7adbba6fa669999d8137d",
          "topics": [
            "0x8c5be1e5ebec7d5bd14f71427d1e84f3dd0314c0f7b2291e5b200ac8c7c3b925",
            "0x000000000000000000000000de05a1abb121113a33eed248bd91ddc254d5e9db",
            "0x00000000000000000000000055105f426126952ac6d9c2e7e72c7451318617d3"
          ],
          "data": "0x0000000000000000000000000000000000000000000000056bc75e2d63100000",
          "blockHash": "0xe9059e14bb20bcc0728d12f21540130ecd8ec350a5f52761b1873cbb19ae9293",
          "blockNumber": "0x5d8b9f",
          "transactionHash": "0xbc5ee9b447203d8cfd98579fcaa589c16eb9749036fb5f7915c1945827413d9d",
          "transactionIndex": "0x80",
          "logIndex": "0xcc",
          "removed": false
        }
      ],
      "logsBloom": "0x00000000000000000000000000000000001000000000000002100000000000000000000000000010800000000000000000000000000000000000000000200000000000000000000000000000000000000000000000000000000000000000000000000000000000000000000000000000000000000000004000000000000000000000000000000020000000000000000000000000000000000000000000000000020001000000000000000000000000000000000000000000000000000000000000000000000000000000000000000000000000000000000000000000100000000010000000000000000000000000000000000000000000000000000000000000",
      "type": "0x2",
      "transactionHash": "0xbc5ee9b447203d8cfd98579fcaa589c16eb9749036fb5f7915c1945827413d9d",
      "transactionIndex": "0x80",
      "blockHash": "0xe9059e14bb20bcc0728d12f21540130ecd8ec350a5f52761b1873cbb19ae9293",
      "blockNumber": "0x5d8b9f",
      "gasUsed": "0x727a",
      "effectiveGasPrice": "0x8bb0a1",
      "from": "0xde05a1abb121113a33eed248bd91ddc254d5e9db",
      "to": "0x5667424802ef74c314e7adbba6fa669999d8137d",
      "contractAddress": null
    },
    {
      "status": "0x1",
      "cumulativeGasUsed": "0x1756d7a",
      "logs": [
        {
          "address": "0x55105f426126952ac6d9c2e7e72c7451318617d3",
          "topics": [
            "0xf8a1448a8741accb69ef058349d251e0830b63a2fabfbada1059c05a286f6195",
            "0x673d2ca094dbafe775243d06e73502d755b3e0422234da227047e1adb72a9db1",
            "0x23f0396c23eed0e0f350f573fd5d4a4be02ff0e65827a8bc45550ac1144ba935"
          ],
          "data": "0x",
          "blockHash": "0xe9059e14bb20bcc0728d12f21540130ecd8ec350a5f52761b1873cbb19ae9293",
          "blockNumber": "0x5d8b9f",
          "transactionHash": "0x3ef423897de64205a2d2f81c2a458c3220620680801c8fa91f223206c3d84164",
          "transactionIndex": "0x81",
          "logIndex": "0xcd",
          "removed": false
        },
        {
          "address": "0x5667424802ef74c314e7adbba6fa669999d8137d",
          "topics": [
            "0xddf252ad1be2c89b69c2b068fc378daa952ba7f163c4a11628f55a4df523b3ef",
            "0x000000000000000000000000de05a1abb121113a33eed248bd91ddc254d5e9db",
            "0x00000000000000000000000055105f426126952ac6d9c2e7e72c7451318617d3"
          ],
          "data": "0x0000000000000000000000000000000000000000000000008ac7230489e80000",
          "blockHash": "0xe9059e14bb20bcc0728d12f21540130ecd8ec350a5f52761b1873cbb19ae9293",
          "blockNumber": "0x5d8b9f",
          "transactionHash": "0x3ef423897de64205a2d2f81c2a458c3220620680801c8fa91f223206c3d84164",
          "transactionIndex": "0x81",
          "logIndex": "0xce",
          "removed": false
        }
      ],
      "logsBloom": "0x0000000000400000000000000000000000100000000000000210000000000000000000000000001080000002000800000000000000000000000000000000000000000000000000000000000800000080000000000000000000000000000000000000000000000000000000000800000000000000000400400000001000000000000000000000002000000000000000000000000000020000000000000000000000000100000000000000000000000000000000000000000000000000000000000000000e000000000000000000000000000000000020000000000000100000000000000000000002000000000000000000000000000000000000000004000000",
      "type": "0x2",
      "transactionHash": "0x3ef423897de64205a2d2f81c2a458c3220620680801c8fa91f223206c3d84164",
      "transactionIndex": "0x81",
      "blockHash": "0xe9059e14bb20bcc0728d12f21540130ecd8ec350a5f52761b1873cbb19ae9293",
      "blockNumber": "0x5d8b9f",
      "gasUsed": "0x197e7",
      "effectiveGasPrice": "0x8bb0a1",
      "from": "0xde05a1abb121113a33eed248bd91ddc254d5e9db",
      "to": "0x55105f426126952ac6d9c2e7e72c7451318617d3",
      "contractAddress": null
    }
  ],
  "libraries": [],
  "pending": [],
  "returns": {},
  "timestamp": 1718675654,
  "chain": 11155111,
  "commit": "0c00c1f"
}