{
  "transactions": [
    {
      "hash": "0xb3bf0677464ad2c12e57b7489e0440e5767443bbac26046c5f81728d52044e1c",
      "transactionType": "CALL",
      "contractName": null,
      "contractAddress": "0x40e556662859caae4fb944b36020b94572165ab8",
      "function": "transferOwnership(address)",
      "arguments": [
        "0x8C9C001F821c04513616fd7962B2D8c62f925fD2"
      ],
      "transaction": {
        "from": "0x8c9c001f821c04513616fd7962b2d8c62f925fd2",
        "to": "0x40e556662859caae4fb944b36020b94572165ab8",
        "gas": "0x10225",
        "value": "0x0",
        "input": "0xf2fde38b0000000000000000000000008c9c001f821c04513616fd7962b2d8c62f925fd2",
        "nonce": "0x31",
        "chainId": "0xaa36a7"
      },
      "additionalContracts": [],
      "isFixedGasLimit": false
    }
  ],
  "receipts": [
    {
      "status": "0x1",
      "cumulativeGasUsed": "0xc5472",
      "logs": [
        {
          "address": "0x40e556662859caae4fb944b36020b94572165ab8",
          "topics": [
            "0x38d16b8cac22d99fc7c124b9cd0de2d3fa1faef420bfe791d8c362d765e22700",
            "0x0000000000000000000000008c9c001f821c04513616fd7962b2d8c62f925fd2",
            "0x0000000000000000000000008c9c001f821c04513616fd7962b2d8c62f925fd2"
          ],
          "data": "0x",
          "blockHash": "0x5393fb46ba41cb4163dce663fe8634a7d71ceff7a02c4ba70aff0ef47d3c3e4e",
          "blockNumber": "0x5f0ec1",
          "transactionHash": "0xb3bf0677464ad2c12e57b7489e0440e5767443bbac26046c5f81728d52044e1c",
          "transactionIndex": "0x5",
          "logIndex": "0x4",
          "removed": false
        }
      ],
      "logsBloom": "0x00000000000004000000000000000800000000000000000000000000000000000000000000000000000000000000000000000000000000000000000000000000000100000000000000000000004000000000000000000000000000000000008000000000000000000000000000000000000800000000000000000000000000000000000000000000000000000000000000000000000000000000000000000000000000000000020000000000000000000000000000000000000080000000000000002000000000000000000000000000000000000000000000000000000000000000000000000000000000000000000000000000000000000000000000000000",
      "type": "0x0",
      "transactionHash": "0xb3bf0677464ad2c12e57b7489e0440e5767443bbac26046c5f81728d52044e1c",
      "transactionIndex": "0x5",
      "blockHash": "0x5393fb46ba41cb4163dce663fe8634a7d71ceff7a02c4ba70aff0ef47d3c3e4e",
      "blockNumber": "0x5f0ec1",
      "gasUsed": "0xbae5",
      "effectiveGasPrice": "0xf011a0ee3",
      "from": "0x8c9c001f821c04513616fd7962b2d8c62f925fd2",
      "to": "0x40e556662859caae4fb944b36020b94572165ab8",
      "contractAddress": null
    }
  ],
  "libraries": [],
  "pending": [],
  "returns": {},
  "timestamp": 1719893582,
  "chain": 11155111,
  "commit": "a480a80"
}