{
  "transactions": [
    {
      "hash": "0x2d73d2660b52c130398ecb6daba2b20f561c7c29e5bbbed03b37704ecf2d6067",
      "transactionType": "CALL",
      "contractName": null,
      "contractAddress": "0x55105f426126952ac6d9c2e7e72c7451318617d3",
      "function": "stakeBehalf(address[],uint256[])",
      "arguments": [
        "[0xdE05a1Abb121113a33eeD248BD91ddC254d5E9Db, 0xdE05a1Abb121113a33eeD248BD91ddC254d5E9Db, 0xdE05a1Abb121113a33eeD248BD91ddC254d5E9Db]",
        "[5000000000000000000, 5000000000000000000, 5000000000000000000]"
      ],
      "transaction": {
        "from": "0xde05a1abb121113a33eed248bd91ddc254d5e9db",
        "to": "0x55105f426126952ac6d9c2e7e72c7451318617d3",
        "gas": "0x20141",
        "value": "0x0",
        "input": "0x469ae374000000000000000000000000000000000000000000000000000000000000004000000000000000000000000000000000000000000000000000000000000000c00000000000000000000000000000000000000000000000000000000000000003000000000000000000000000de05a1abb121113a33eed248bd91ddc254d5e9db000000000000000000000000de05a1abb121113a33eed248bd91ddc254d5e9db000000000000000000000000de05a1abb121113a33eed248bd91ddc254d5e9db00000000000000000000000000000000000000000000000000000000000000030000000000000000000000000000000000000000000000004563918244f400000000000000000000000000000000000000000000000000004563918244f400000000000000000000000000000000000000000000000000004563918244f40000",
        "nonce": "0x1b8",
        "chainId": "0xaa36a7"
      },
      "additionalContracts": [],
      "isFixedGasLimit": false
    }
  ],
  "receipts": [
    {
      "status": "0x1",
      "cumulativeGasUsed": "0x8676e6",
      "logs": [
        {
          "address": "0x55105f426126952ac6d9c2e7e72c7451318617d3",
          "topics": [
            "0xf8a1448a8741accb69ef058349d251e0830b63a2fabfbada1059c05a286f6195",
            "0xe64cc913d020dd0e73dc01a7520b0334e3166281671e0251f2c530e03ae870b6",
            "0x39d103734e7ae540a4aef64ea114c07caf34a255eb1d6a27dc54d94ed04f18fb"
          ],
          "data": "0x",
          "blockHash": "0x6654268baf7b0ebf8c1dacda5a96fdec86c8748a15df5d68c24ae4a2ccb446dc",
          "blockNumber": "0x5d8bb8",
          "transactionHash": "0x2d73d2660b52c130398ecb6daba2b20f561c7c29e5bbbed03b37704ecf2d6067",
          "transactionIndex": "0x3d",
          "logIndex": "0x65",
          "removed": false
        },
        {
          "address": "0x5667424802ef74c314e7adbba6fa669999d8137d",
          "topics": [
            "0xddf252ad1be2c89b69c2b068fc378daa952ba7f163c4a11628f55a4df523b3ef",
            "0x000000000000000000000000de05a1abb121113a33eed248bd91ddc254d5e9db",
            "0x00000000000000000000000055105f426126952ac6d9c2e7e72c7451318617d3"
          ],
          "data": "0x000000000000000000000000000000000000000000000000d02ab486cedc0000",
          "blockHash": "0x6654268baf7b0ebf8c1dacda5a96fdec86c8748a15df5d68c24ae4a2ccb446dc",
          "blockNumber": "0x5d8bb8",
          "transactionHash": "0x2d73d2660b52c130398ecb6daba2b20f561c7c29e5bbbed03b37704ecf2d6067",
          "transactionIndex": "0x3d",
          "logIndex": "0x66",
          "removed": false
        }
      ],
      "logsBloom": "0x00000000004000000000000000000040001000000000000002100000000000000000000000000010800000000008000000000000000000000000000020000000000000000000000000000008000000800000000000000000000000000000000000000000000000000000000008000000000000000000004000000010000000000000000000000020000000000000000000000000000200000000000000000000002001000000008000000000000000000000000000000000000000000000000000000002000000000000000000000000000000000020000000000000100000000000000000000000000008000000000000000000000800000000000000000000",
      "type": "0x2",
      "transactionHash": "0x2d73d2660b52c130398ecb6daba2b20f561c7c29e5bbbed03b37704ecf2d6067",
      "transactionIndex": "0x3d",
      "blockHash": "0x6654268baf7b0ebf8c1dacda5a96fdec86c8748a15df5d68c24ae4a2ccb446dc",
      "blockNumber": "0x5d8bb8",
      "gasUsed": "0x15ef2",
      "effectiveGasPrice": "0xb3d17a",
      "from": "0xde05a1abb121113a33eed248bd91ddc254d5e9db",
      "to": "0x55105f426126952ac6d9c2e7e72c7451318617d3",
      "contractAddress": null
    }
  ],
  "libraries": [],
  "pending": [],
  "returns": {},
  "timestamp": 1718675967,
  "chain": 11155111,
  "commit": "0c00c1f"
}