{
  "transactions": [
    {
      "hash": "0x310c3d16036e6273340ef6f68a71f966c739751b0c42ac968d636532f135717d",
      "transactionType": "CALL",
      "contractName": null,
      "contractAddress": "0x5667424802ef74c314e7adbba6fa669999d8137d",
      "function": "mint(uint256)",
      "arguments": [
        "100000000000000000000"
      ],
      "transaction": {
        "from": "0xde05a1abb121113a33eed248bd91ddc254d5e9db",
        "to": "0x5667424802ef74c314e7adbba6fa669999d8137d",
        "gas": "0xc13f",
        "value": "0x0",
        "input": "0xa0712d680000000000000000000000000000000000000000000000056bc75e2d63100000",
        "nonce": "0x1b0",
        "chainId": "0xaa36a7"
      },
      "additionalContracts": [],
      "isFixedGasLimit": false
    },
    {
      "hash": "0xa47d97d666349abda9aab3e2fcea7e2861071810a6707ac7ef99eb5cd65d70bb",
      "transactionType": "CALL",
      "contractName": null,
      "contractAddress": "0x5667424802ef74c314e7adbba6fa669999d8137d",
      "function": "approve(address,uint256)",
      "arguments": [
        "0x55105f426126952AC6d9C2E7e72C7451318617D3",
        "100000000000000000000"
      ],
      "transaction": {
        "from": "0xde05a1abb121113a33eed248bd91ddc254d5e9db",
        "to": "0x5667424802ef74c314e7adbba6fa669999d8137d",
        "gas": "0xfa61",
        "value": "0x0",
        "input": "0x095ea7b300000000000000000000000055105f426126952ac6d9c2e7e72c7451318617d30000000000000000000000000000000000000000000000056bc75e2d63100000",
        "nonce": "0x1b1",
        "chainId": "0xaa36a7"
      },
      "additionalContracts": [],
      "isFixedGasLimit": false
    },
    {
      "hash": "0xcd5cbe07d489efd8eb3ac53c60258bbbf02a7b36e0f3585500c85045b94439d1",
      "transactionType": "CALL",
      "contractName": null,
      "contractAddress": "0x55105f426126952ac6d9c2e7e72c7451318617d3",
      "function": "stakeBehalf(address[],uint256[])",
      "arguments": [
        "[0xdE05a1Abb121113a33eeD248BD91ddC254d5E9Db]",
        "[5000000000000000000]"
      ],
      "transaction": {
        "from": "0xde05a1abb121113a33eed248bd91ddc254d5e9db",
        "to": "0x55105f426126952ac6d9c2e7e72c7451318617d3",
        "gas": "0x270b3",
        "value": "0x0",
        "input": "0x469ae374000000000000000000000000000000000000000000000000000000000000004000000000000000000000000000000000000000000000000000000000000000800000000000000000000000000000000000000000000000000000000000000001000000000000000000000000de05a1abb121113a33eed248bd91ddc254d5e9db00000000000000000000000000000000000000000000000000000000000000010000000000000000000000000000000000000000000000004563918244f40000",
        "nonce": "0x1b2",
        "chainId": "0xaa36a7"
      },
      "additionalContracts": [],
      "isFixedGasLimit": false
    }
  ],
  "receipts": [
    {
      "status": "0x1",
      "cumulativeGasUsed": "0xd12fd5",
      "logs": [
        {
          "address": "0x5667424802ef74c314e7adbba6fa669999d8137d",
          "topics": [
            "0xddf252ad1be2c89b69c2b068fc378daa952ba7f163c4a11628f55a4df523b3ef",
            "0x0000000000000000000000000000000000000000000000000000000000000000",
            "0x000000000000000000000000de05a1abb121113a33eed248bd91ddc254d5e9db"
          ],
          "data": "0x0000000000000000000000000000000000000000000000056bc75e2d63100000",
          "blockHash": "0x531304ab48eb07241a0711099cfbdcf39b2242ca2b33fa61ff446defe76a0ca0",
          "blockNumber": "0x5d8b8a",
          "transactionHash": "0x310c3d16036e6273340ef6f68a71f966c739751b0c42ac968d636532f135717d",
          "transactionIndex": "0x52",
          "logIndex": "0x74",
          "removed": false
        }
      ],
      "logsBloom": "0x00000000000000000000000000000000000000000000000002100000000000000000000000000000000000000000000000000000000000000000000000000000000000000000000000000008000000000000000000000000000000000000000000000000020000000000000000000800000000000000004000000010000000000000000000000020000000000000000000000000000000000000000000000000000001000000000000000000000000000000000000000000000000000000000000000002000000000000000000000000000000000000000000000000100020000000000000000000000000000000000000000000000000000000000000000000",
      "type": "0x2",
      "transactionHash": "0x310c3d16036e6273340ef6f68a71f966c739751b0c42ac968d636532f135717d",
      "transactionIndex": "0x52",
      "blockHash": "0x531304ab48eb07241a0711099cfbdcf39b2242ca2b33fa61ff446defe76a0ca0",
      "blockNumber": "0x5d8b8a",
      "gasUsed": "0x8423",
      "effectiveGasPrice": "0x7c2f9b",
      "from": "0xde05a1abb121113a33eed248bd91ddc254d5e9db",
      "to": "0x5667424802ef74c314e7adbba6fa669999d8137d",
      "contractAddress": null
    },
    {
      "status": "0x1",
      "cumulativeGasUsed": "0xd1e51b",
      "logs": [
        {
          "address": "0x5667424802ef74c314e7adbba6fa669999d8137d",
          "topics": [
            "0x8c5be1e5ebec7d5bd14f71427d1e84f3dd0314c0f7b2291e5b200ac8c7c3b925",
            "0x000000000000000000000000de05a1abb121113a33eed248bd91ddc254d5e9db",
            "0x00000000000000000000000055105f426126952ac6d9c2e7e72c7451318617d3"
          ],
          "data": "0x0000000000000000000000000000000000000000000000056bc75e2d63100000",
          "blockHash": "0x531304ab48eb07241a0711099cfbdcf39b2242ca2b33fa61ff446defe76a0ca0",
          "blockNumber": "0x5d8b8a",
          "transactionHash": "0xa47d97d666349abda9aab3e2fcea7e2861071810a6707ac7ef99eb5cd65d70bb",
          "transactionIndex": "0x53",
          "logIndex": "0x75",
          "removed": false
        }
      ],
      "logsBloom": "0x00000000000000000000000000000000001000000000000002100000000000000000000000000010800000000000000000000000000000000000000000200000000000000000000000000000000000000000000000000000000000000000000000000000000000000000000000000000000000000000004000000000000000000000000000000020000000000000000000000000000000000000000000000000020001000000000000000000000000000000000000000000000000000000000000000000000000000000000000000000000000000000000000000000100000000010000000000000000000000000000000000000000000000000000000000000",
      "type": "0x2",
      "transactionHash": "0xa47d97d666349abda9aab3e2fcea7e2861071810a6707ac7ef99eb5cd65d70bb",
      "transactionIndex": "0x53",
      "blockHash": "0x531304ab48eb07241a0711099cfbdcf39b2242ca2b33fa61ff446defe76a0ca0",
      "blockNumber": "0x5d8b8a",
      "gasUsed": "0xb546",
      "effectiveGasPrice": "0x7c2f9b",
      "from": "0xde05a1abb121113a33eed248bd91ddc254d5e9db",
      "to": "0x5667424802ef74c314e7adbba6fa669999d8137d",
      "contractAddress": null
    },
    {
      "status": "0x1",
      "cumulativeGasUsed": "0xd3a961",
      "logs": [
        {
          "address": "0x55105f426126952ac6d9c2e7e72c7451318617d3",
          "topics": [
            "0xf8a1448a8741accb69ef058349d251e0830b63a2fabfbada1059c05a286f6195",
            "0xe3c51446af34b04da516c1035c177b1af837ec078d28fb82245bfaefce44055e",
            "0x2e10ea65e8842925cf2e61b19c59a6ae6a6e5674f868567d525f06e32af93215"
          ],
          "data": "0x",
          "blockHash": "0x531304ab48eb07241a0711099cfbdcf39b2242ca2b33fa61ff446defe76a0ca0",
          "blockNumber": "0x5d8b8a",
          "transactionHash": "0xcd5cbe07d489efd8eb3ac53c60258bbbf02a7b36e0f3585500c85045b94439d1",
          "transactionIndex": "0x54",
          "logIndex": "0x76",
          "removed": false
        },
        {
          "address": "0x5667424802ef74c314e7adbba6fa669999d8137d",
          "topics": [
            "0xddf252ad1be2c89b69c2b068fc378daa952ba7f163c4a11628f55a4df523b3ef",
            "0x000000000000000000000000de05a1abb121113a33eed248bd91ddc254d5e9db",
            "0x00000000000000000000000055105f426126952ac6d9c2e7e72c7451318617d3"
          ],
          "data": "0x0000000000000000000000000000000000000000000000004563918244f40000",
          "blockHash": "0x531304ab48eb07241a0711099cfbdcf39b2242ca2b33fa61ff446defe76a0ca0",
          "blockNumber": "0x5d8b8a",
          "transactionHash": "0xcd5cbe07d489efd8eb3ac53c60258bbbf02a7b36e0f3585500c85045b94439d1",
          "transactionIndex": "0x54",
          "logIndex": "0x77",
          "removed": false
        }
      ],
      "logsBloom": "0x00000000004000000000000000000000001000000000000002100000000000000000000000000010800000000008000000000000000000000000000000000000000000000000000000000008000100800000000042000000000000000000000000000000000000000000000008000000000000000000004000000010000000000000000000000020000000000000000000000000000200000000000000000000000001000000000000000001000000000000000000000000000000000000000000000002000000000000000000000000000000100020000000008000100000000000000000000000000000000000000000000000000000000000000000000000",
      "type": "0x2",
      "transactionHash": "0xcd5cbe07d489efd8eb3ac53c60258bbbf02a7b36e0f3585500c85045b94439d1",
      "transactionIndex": "0x54",
      "blockHash": "0x531304ab48eb07241a0711099cfbdcf39b2242ca2b33fa61ff446defe76a0ca0",
      "blockNumber": "0x5d8b8a",
      "gasUsed": "0x1c446",
      "effectiveGasPrice": "0x7c2f9b",
      "from": "0xde05a1abb121113a33eed248bd91ddc254d5e9db",
      "to": "0x55105f426126952ac6d9c2e7e72c7451318617d3",
      "contractAddress": null
    }
  ],
  "libraries": [],
  "pending": [],
  "returns": {},
  "timestamp": 1718675393,
  "chain": 11155111,
  "commit": "0c00c1f"
}