{
  "transactions": [
    {
      "hash": "0xc2163744bc6623897dfbb059ad0a8a706d118a38b427e87014aa8b627ed18642",
      "transactionType": "CALL",
      "contractName": "MocaTokenMock",
      "contractAddress": "0x5667424802Ef74C314e7adbBa6fA669999d8137D",
      "function": "mint(uint256)",
      "arguments": [
        "10000000000000000000"
      ],
      "transaction": {
        "type": "0x02",
        "from": "0xde05a1abb121113a33eed248bd91ddc254d5e9db",
        "to": "0x5667424802ef74c314e7adbba6fa669999d8137d",
        "gas": "0xb672",
        "value": "0x0",
        "data": "0xa0712d680000000000000000000000000000000000000000000000008ac7230489e80000",
        "nonce": "0x194",
        "accessList": []
      },
      "additionalContracts": [],
      "isFixedGasLimit": false
    },
    {
      "hash": "0x2bb5916730c115bcfe40a4615b46027957c1a00673bf6cb42d38b4a6fd34061f",
      "transactionType": "CALL",
      "contractName": "MocaTokenMock",
      "contractAddress": "0x5667424802Ef74C314e7adbBa6fA669999d8137D",
      "function": "approve(address,uint256)",
      "arguments": [
        "0x2EF1b6BcFf31b64ee4Fd5A3CF9e7b58a2eaea8D5",
        "10000000000000000000"
      ],
      "transaction": {
        "type": "0x02",
        "from": "0xde05a1abb121113a33eed248bd91ddc254d5e9db",
        "to": "0x5667424802ef74c314e7adbba6fa669999d8137d",
        "gas": "0x1090a",
        "value": "0x0",
        "data": "0x095ea7b30000000000000000000000002ef1b6bcff31b64ee4fd5a3cf9e7b58a2eaea8d50000000000000000000000000000000000000000000000008ac7230489e80000",
        "nonce": "0x195",
        "accessList": []
      },
      "additionalContracts": [],
      "isFixedGasLimit": false
    },
    {
      "hash": "0xd98145d721f996142ec32d42be819f31e819db8cd926d1123e5f9fc6a07d9702",
      "transactionType": "CALL",
      "contractName": "SimpleStaking",
      "contractAddress": "0x2EF1b6BcFf31b64ee4Fd5A3CF9e7b58a2eaea8D5",
      "function": "stake(uint256)",
      "arguments": [
        "10000000000000000000"
      ],
      "transaction": {
        "type": "0x02",
        "from": "0xde05a1abb121113a33eed248bd91ddc254d5e9db",
        "to": "0x2ef1b6bcff31b64ee4fd5a3cf9e7b58a2eaea8d5",
        "gas": "0x263bf",
        "value": "0x0",
        "data": "0xa694fc3a0000000000000000000000000000000000000000000000008ac7230489e80000",
        "nonce": "0x196",
        "accessList": []
      },
      "additionalContracts": [],
      "isFixedGasLimit": false
    }
  ],
  "receipts": [
    {
      "transactionHash": "0xc2163744bc6623897dfbb059ad0a8a706d118a38b427e87014aa8b627ed18642",
      "transactionIndex": "0x10",
      "blockHash": "0xb43e8309df1174104f0700d58e0707fef50ccfc8f0f67891184056be0d163f2e",
      "blockNumber": "0x5b5843",
      "from": "0xdE05a1Abb121113a33eeD248BD91ddC254d5E9Db",
      "to": "0x5667424802Ef74C314e7adbBa6fA669999d8137D",
      "cumulativeGasUsed": "0x168013b",
      "gasUsed": "0x8417",
      "contractAddress": null,
      "logs": [
        {
          "address": "0x5667424802Ef74C314e7adbBa6fA669999d8137D",
          "topics": [
            "0xddf252ad1be2c89b69c2b068fc378daa952ba7f163c4a11628f55a4df523b3ef",
            "0x0000000000000000000000000000000000000000000000000000000000000000",
            "0x000000000000000000000000de05a1abb121113a33eed248bd91ddc254d5e9db"
          ],
          "data": "0x0000000000000000000000000000000000000000000000008ac7230489e80000",
          "blockHash": "0xb43e8309df1174104f0700d58e0707fef50ccfc8f0f67891184056be0d163f2e",
          "blockNumber": "0x5b5843",
          "transactionHash": "0xc2163744bc6623897dfbb059ad0a8a706d118a38b427e87014aa8b627ed18642",
          "transactionIndex": "0x10",
          "logIndex": "0x12",
          "removed": false
        }
      ],
      "status": "0x1",
      "logsBloom": "0x00000000000000000000000000000000000000000000000002100000000000000000000000000000000000000000000000000000000000000000000000000000000000000000000000000008000000000000000000000000000000000000000000000000020000000000000000000800000000000000004000000010000000000000000000000020000000000000000000000000000000000000000000000000000001000000000000000000000000000000000000000000000000000000000000000002000000000000000000000000000000000000000000000000100020000000000000000000000000000000000000000000000000000000000000000000",
      "type": "0x2",
      "effectiveGasPrice": "0x1168e151c"
    },
    {
      "transactionHash": "0x2bb5916730c115bcfe40a4615b46027957c1a00673bf6cb42d38b4a6fd34061f",
      "transactionIndex": "0x11",
      "blockHash": "0xb43e8309df1174104f0700d58e0707fef50ccfc8f0f67891184056be0d163f2e",
      "blockNumber": "0x5b5843",
      "from": "0xdE05a1Abb121113a33eeD248BD91ddC254d5E9Db",
      "to": "0x5667424802Ef74C314e7adbBa6fA669999d8137D",
      "cumulativeGasUsed": "0x168b675",
      "gasUsed": "0xb53a",
      "contractAddress": null,
      "logs": [
        {
          "address": "0x5667424802Ef74C314e7adbBa6fA669999d8137D",
          "topics": [
            "0x8c5be1e5ebec7d5bd14f71427d1e84f3dd0314c0f7b2291e5b200ac8c7c3b925",
            "0x000000000000000000000000de05a1abb121113a33eed248bd91ddc254d5e9db",
            "0x0000000000000000000000002ef1b6bcff31b64ee4fd5a3cf9e7b58a2eaea8d5"
          ],
          "data": "0x0000000000000000000000000000000000000000000000008ac7230489e80000",
          "blockHash": "0xb43e8309df1174104f0700d58e0707fef50ccfc8f0f67891184056be0d163f2e",
          "blockNumber": "0x5b5843",
          "transactionHash": "0x2bb5916730c115bcfe40a4615b46027957c1a00673bf6cb42d38b4a6fd34061f",
          "transactionIndex": "0x11",
          "logIndex": "0x13",
          "removed": false
        }
      ],
      "status": "0x1",
      "logsBloom": "0x00000000000000000000000000000000000000000000000002100000000000000010000000000000000040000000000000000000000000000000000000200000000000000000000000000000000000008000000000000000000000000000000000000000000000000000000000000000000000000000004000000000000000000000000000000020000000000000000000000000000000000000000000000000020001000000000000000000000000000000000000000000000000000000000000000000000000000000000000000000000000000000000000000000100000000010000000000000000000000000000000000000000000000000000000000000",
      "type": "0x2",
      "effectiveGasPrice": "0x1168e151c"
    },
    {
      "transactionHash": "0xd98145d721f996142ec32d42be819f31e819db8cd926d1123e5f9fc6a07d9702",
      "transactionIndex": "0x12",
      "blockHash": "0xb43e8309df1174104f0700d58e0707fef50ccfc8f0f67891184056be0d163f2e",
      "blockNumber": "0x5b5843",
      "from": "0xdE05a1Abb121113a33eeD248BD91ddC254d5E9Db",
      "to": "0x2EF1b6BcFf31b64ee4Fd5A3CF9e7b58a2eaea8D5",
      "cumulativeGasUsed": "0x16a58bf",
      "gasUsed": "0x1a24a",
      "contractAddress": null,
      "logs": [
        {
          "address": "0x2EF1b6BcFf31b64ee4Fd5A3CF9e7b58a2eaea8D5",
          "topics": [
            "0x9e71bc8eea02a63969f509818f2dafb9254532904319f9dbda79b67bd34a5f3d",
            "0x000000000000000000000000de05a1abb121113a33eed248bd91ddc254d5e9db"
          ],
          "data": "0x0000000000000000000000000000000000000000000000008ac7230489e80000",
          "blockHash": "0xb43e8309df1174104f0700d58e0707fef50ccfc8f0f67891184056be0d163f2e",
          "blockNumber": "0x5b5843",
          "transactionHash": "0xd98145d721f996142ec32d42be819f31e819db8cd926d1123e5f9fc6a07d9702",
          "transactionIndex": "0x12",
          "logIndex": "0x14",
          "removed": false
        },
        {
          "address": "0x5667424802Ef74C314e7adbBa6fA669999d8137D",
          "topics": [
            "0xddf252ad1be2c89b69c2b068fc378daa952ba7f163c4a11628f55a4df523b3ef",
            "0x000000000000000000000000de05a1abb121113a33eed248bd91ddc254d5e9db",
            "0x0000000000000000000000002ef1b6bcff31b64ee4fd5a3cf9e7b58a2eaea8d5"
          ],
          "data": "0x0000000000000000000000000000000000000000000000008ac7230489e80000",
          "blockHash": "0xb43e8309df1174104f0700d58e0707fef50ccfc8f0f67891184056be0d163f2e",
          "blockNumber": "0x5b5843",
          "transactionHash": "0xd98145d721f996142ec32d42be819f31e819db8cd926d1123e5f9fc6a07d9702",
          "transactionIndex": "0x12",
          "logIndex": "0x15",
          "removed": false
        }
      ],
      "status": "0x1",
      "logsBloom": "0x00000000000000004000000000000000000000000800000002100000000000000010000000000000000040000000000000000000000000000000000000000000000000000000000000000008000000008000000000000000000000000000000040000000008000000008000000000000000000000000004000000010000000000000000000000020000000000000000000000000000000000000000000000000000001001000000000000000000000000000000000000000000000000000000000000002000000000000000000000000000000000000000000000000100000000000000000000000000000000000000000000000000000000000000000000000",
      "type": "0x2",
      "effectiveGasPrice": "0x1168e151c"
    }
  ],
  "libraries": [],
  "pending": [],
  "returns": {},
  "timestamp": 1716790972,
  "chain": 11155111,
  "multi": false,
  "commit": "57de4f8"
}