{
  "transactions": [
    {
      "hash": "0x11e1d8af6d947bdb117fa7b57f8e4d22a405e4c8286942b495c3c4b56d2bed2c",
      "transactionType": "CALL",
      "contractName": null,
      "contractAddress": "0x55105f426126952ac6d9c2e7e72c7451318617d3",
      "function": "stakeBehalf(address[],uint256[])",
      "arguments": [
        "[0xdE05a1Abb121113a33eeD248BD91ddC254d5E9Db, 0xdE05a1Abb121113a33eeD248BD91ddC254d5E9Db]",
        "[5000000000000000000, 5000000000000000000]"
      ],
      "transaction": {
        "from": "0xde05a1abb121113a33eed248bd91ddc254d5e9db",
        "to": "0x55105f426126952ac6d9c2e7e72c7451318617d3",
        "gas": "0x1f2dd",
        "value": "0x0",
        "input": "0x469ae374000000000000000000000000000000000000000000000000000000000000004000000000000000000000000000000000000000000000000000000000000000a00000000000000000000000000000000000000000000000000000000000000002000000000000000000000000de05a1abb121113a33eed248bd91ddc254d5e9db000000000000000000000000de05a1abb121113a33eed248bd91ddc254d5e9db00000000000000000000000000000000000000000000000000000000000000020000000000000000000000000000000000000000000000004563918244f400000000000000000000000000000000000000000000000000004563918244f40000",
        "nonce": "0x1b6",
        "chainId": "0xaa36a7"
      },
      "additionalContracts": [],
      "isFixedGasLimit": false
    }
  ],
  "receipts": [
    {
      "status": "0x1",
      "cumulativeGasUsed": "0x70778d",
      "logs": [
        {
          "address": "0x55105f426126952ac6d9c2e7e72c7451318617d3",
          "topics": [
            "0xf8a1448a8741accb69ef058349d251e0830b63a2fabfbada1059c05a286f6195",
            "0x673d2ca094dbafe775243d06e73502d755b3e0422234da227047e1adb72a9db1",
            "0x23f0396c23eed0e0f350f573fd5d4a4be02ff0e65827a8bc45550ac1144ba935"
          ],
          "data": "0x",
          "blockHash": "0x08cf5c9c29b814713d49c68680b0e140edaaaf8dd9f445a56107cfadde901ddd",
          "blockNumber": "0x5d8ba7",
          "transactionHash": "0x11e1d8af6d947bdb117fa7b57f8e4d22a405e4c8286942b495c3c4b56d2bed2c",
          "transactionIndex": "0x33",
          "logIndex": "0x37",
          "removed": false
        },
        {
          "address": "0x5667424802ef74c314e7adbba6fa669999d8137d",
          "topics": [
            "0xddf252ad1be2c89b69c2b068fc378daa952ba7f163c4a11628f55a4df523b3ef",
            "0x000000000000000000000000de05a1abb121113a33eed248bd91ddc254d5e9db",
            "0x00000000000000000000000055105f426126952ac6d9c2e7e72c7451318617d3"
          ],
          "data": "0x0000000000000000000000000000000000000000000000008ac7230489e80000",
          "blockHash": "0x08cf5c9c29b814713d49c68680b0e140edaaaf8dd9f445a56107cfadde901ddd",
          "blockNumber": "0x5d8ba7",
          "transactionHash": "0x11e1d8af6d947bdb117fa7b57f8e4d22a405e4c8286942b495c3c4b56d2bed2c",
          "transactionIndex": "0x33",
          "logIndex": "0x38",
          "removed": false
        }
      ],
      "logsBloom": "0x0000000000400000000000000000000000100000000000000210000000000000000000000000001080000002000800000000000000000000000000000000000000000000000000000000000800000080000000000000000000000000000000000000000000000000000000000800000000000000000400400000001000000000000000000000002000000000000000000000000000020000000000000000000000000100000000000000000000000000000000000000000000000000000000000000000e000000000000000000000000000000000020000000000000100000000000000000000002000000000000000000000000000000000000000004000000",
      "type": "0x2",
      "transactionHash": "0x11e1d8af6d947bdb117fa7b57f8e4d22a405e4c8286942b495c3c4b56d2bed2c",
      "transactionIndex": "0x33",
      "blockHash": "0x08cf5c9c29b814713d49c68680b0e140edaaaf8dd9f445a56107cfadde901ddd",
      "blockNumber": "0x5d8ba7",
      "gasUsed": "0x1551b",
      "effectiveGasPrice": "0x9ee9b2",
      "from": "0xde05a1abb121113a33eed248bd91ddc254d5e9db",
      "to": "0x55105f426126952ac6d9c2e7e72c7451318617d3",
      "contractAddress": null
    }
  ],
  "libraries": [],
  "pending": [],
  "returns": {},
  "timestamp": 1718675754,
  "chain": 11155111,
  "commit": "0c00c1f"
}